:020000040800F2
:1000000000000220191B0008311A0008391A0008E4
:10001000411A0008491A0008511A0008000000009F
:10002000000000000000000000000000591A000855
:10003000671A000800000000751A0008831A0008FB
:10004000691B0008691B0008691B0008691B000880
:10005000691B0008691B0008691B0008691B000870
:10006000691B0008691B0008691B0008691B000860
:10007000691B0008691B0008691B0008691B000850
:10008000691B0008691B0008691B0008691B000840
:10009000691B0008691B0008691B0008691B000830
:1000A000691B0008691B0008691B0008691B000820
:1000B000911A0008A51A0008B91A0008691B00085F
:1000C000691B0008691B0008691B0008691B000800
:1000D000691B0008691B0008691B0008CD1A00088D
:1000E000691B0008691B0008691B0008691B0008E0
:1000F000691B0008691B0008691B0008691B0008D0
:10010000691B0008691B0008691B0008691B0008BF
:10011000691B0008691B0008691B0008691B0008AF
:10012000E11A0008691B0008691B0008691B000828
:10013000691B0008691B0008691B0008691B00088F
:10014000691B0008691B0008691B0008691B00087F
:10015000691B0008691B0008691B0008691B00086F
:10016000691B0008691B0008691B0008691B00085F
:10017000691B0008691B0008691B000800000000DB
:08018000691B0008691B00085F
:1001880010B5054C237833B9044B13B10448AFF3C9
:1001980000800123237010BD6000002000000000D3
:1001A800145C000808B5034B1BB103490348AFF3BF
:1001B800008008BD0000000064000020145C0008F6
:1001C800034613F8012B002AFBD1181A013870478F
:1001D80053B94AB9002908BF00281CBF4FF0FF31A6
:1001E8004FF0FF3000F06AB9ADF1080C6DE904CEAC
:1001F80000F006F8DDF804E0DDE9022304B07047FA
:100208002DE9F047089D0C46002B4ED194468C45AD
:100218008646B2FA82F262D94AB1C2F1200391400D
:1002280020FA03F30CFA02FC194300FA02FE4FEA23
:100238001C471FFA8CF6B1FBF7F44FEA1E4307FB85
:10024800141143EA014304FB06F199420AD91CEB55
:10025800030304F1FF3080F01281994240F20F81CC
:10026800023C6344591A1FFA8EF3B1FBF7F007FBFF
:10027800101143EA014300FB06F69E420AD91CEB23
:10028800030300F1FF3180F0FC809E4240F2F980C8
:10029800634402389B1B40EA044000211DB1D3404F
:1002A8000022C5E90032BDE8F0878B4205D90DB1BF
:1002B800C5E9000100210846F5E7B3FA83F10029F2
:1002C80046D1A34202D39042C0F0F080861A64EB74
:1002D80003030120002DE6D0C5E90063E3E7002A07
:1002E80040F09080A1EB0C044FEA1C481FFA8CF7F1
:1002F8000121B4FBF8F64FEA1E4308FB164443EA13
:10030800044307FB06F0984208D91CEB030306F1E7
:10031800FF3402D2984200F2CD8026461C1A1FFAFA
:100328008EF3B4FBF8F008FB104443EA044300FBE7
:1003380007F79F4208D91CEB030300F1FF3402D2F0
:100348009F4200F2B0802046DB1B40EA0640A5E74A
:10035800C1F120068B4022FA06F71F4320FA06FC5B
:1003680004FA01F343EA0C03F44000FA01F8380CEC
:100378004FEA1349B4FBF0FE1FFA87FC00FB1E444A
:1003880049EA04440EFB0CF9A14502FA01F20AD924
:100398003C190EF1FF3A80F08480A14540F281803B
:1003A800AEF1020E3C44A4EB09041FFA83F9B4FB36
:1003B800F0F300FB134449EA044403FB0CFCA44596
:1003C80007D93C1903F1FF3067D2A44565D9023B30
:1003D8003C4443EA0E40A0FB0293A4EB0C049C426D
:1003E800CE469C4651D34ED055B1B8EB0E0364EBC4
:1003F8000C0404FA06F6CB401E43CC40C5E9006461
:10040800002150E7C2F1200320FA03F10CFA02FCA4
:1004180024FA03F394400C434FEA1C4800FA02FE06
:100428001FFA8CF7B3FBF8F008FB1031230C43EAF2
:10043800014300FB07F1994208D91CEB030300F1C3
:10044800FF362CD299422AD9023863445B1AA4B2E7
:10045800B3FBF8F108FB113344EA034401FB07F34B
:10046800A34208D91CEB040401F1FF3613D2A342BE
:1004780011D902396444E41A41EA004139E70446D3
:10048800F0E6084606E7C845AED2B9EB020E63EBC4
:10049800070C0138A8E73146EDE7034699E73046EF
:1004A800D4E7D6467FE7634402384DE7064623463D
:1004B80008460FE7023E634430E700BF704700BFBD
:1004C80080B582B000AF78607B681A680C4B1B68F7
:1004D8001B689A420FD14FF480710A4802F059FC08
:1004E800094800F073F8064B1B68002292B20649CF
:1004F800184604F084FB00BF0837BD4680BD00BF26
:1005080088000020000002408C000020B0B58AB0AE
:1005180000AF7860294B07F108041D460FCD0FC4C2
:1005280095E80F0084E80F00254A7B681360254B87
:1005380000221A70224B1C683D693B691846FFF778
:100548003FFE03469AB264232946204604F0CCFABB
:100558001B4B1C68BD693B691846FFF731FE034613
:100568009AB264232946204604F0BEFA144B1C684C
:10057800FD693B691846FFF723FE03469AB26423D8
:100588002946204604F0B0FA0D4B1C683D6A3B69C9
:100598001846FFF715FE03469AB2642329462046FB
:1005A80004F0A2FA064B1B68002292B206491846CC
:1005B80004F025FB00BF2837BD46B0BD985C000895
:1005C80088000020A00000208C00002080B584B0A6
:1005D80000AF78607B681B780D2B04D17B681B7893
:1005E800002B00F086807B681B78772B67DC612BFB
:1005F80008DA332B42D0332B61DC312B36D0322B47
:1006080038D05CE0613B162B59D801A252F823F090
:10061800AB060008C7060008C7060008B9060008A8
:10062800C7060008C7060008C7060008C70600086E
:10063800C7060008C7060008C7060008C70600085E
:10064800C7060008C7060008C7060008C70600084E
:10065800C7060008C70600089D060008C706000868
:10066800C7060008C70600088F0600082C4B64223E
:100678001A8028E02A4BFF221A8024E0284B4FF4E6
:10068800FA721A801FE0274B1B780133DAB2254B28
:100698001A7018E0244B1B780133DAB2224B1A7017
:1006A80011E0224B1B780133DAB2204B1A700AE0B2
:1006B8001F4B1B780133DAB21D4B1A7003E01D4B38
:1006C80001221A7000BF1C4B1B685A1C1A490A6089
:1006D8007A681178194AD154174B1B68312B1AD9EB
:1006E80032220021154805F019FA134B00221A602E
:1006F80011E0104B00221A700023FB6007E00F4A3C
:10070800FB68134400221A70FB680133FB60FB6826
:10071800312BF4DD00BF00BF1037BD4680BD00BFE0
:1007280000000020810000208200002083000020BB
:1007380084000020800000207C000020A000002011
:1007480080B582B000AF3B4B1B78012B0BD13A4BE5
:1007580000221A70394B00221A70394B00221A7085
:10076800384B00221A70374B1B780433344A1278FE
:10077800934206DA334B1B78043B314A1278934292
:1007880005DC40F2E711304800F056F918E02C4B30
:100798001B7804332B4A1278934206DA284B1B78CD
:1007A800043B284A1278934205DC40F2C2312648BD
:1007B80000F042F904E040F2D521234800F03CF96A
:1007C800224B7B601D4B1B7804331B4A12789342E3
:1007D80006DA1A4B1B78043B174A1278934207DC57
:1007E8001B4B1B881A460121786800F033F81CE07F
:1007F800114B1B780433114A1278934206DA0E4BD8
:100808001B78043B0D4A1278934208DC104B1B8876
:100818001A464FF0FF31786800F01CF805E0002216
:100828000021786800F016F800BF00BF0837BD4601
:1008380080BD00BF800000208100002082000020D1
:1008480083000020840000209000002098000020F1
:100858000000002080B483B000AF78600B46FB70C6
:1008680013463B803B88B3F5806F02D340F2FF33D9
:100878003B8097F90330B3F1FF3F46D17B689B88F3
:10088800002B05D17B681B681B683A885A6318E0FF
:100898007B689B88042B05D17B681B681A683B889A
:1008A80093630EE07B689B88082B05D17B681B68E7
:1008B8001A683B88D36304E07B681B681A683B8826
:1008C80013647B68DB88002B05D17B681B681B6879
:1008D80000225A63ABE07B68DB88042B05D17B6878
:1008E8001B681A6800239363A0E07B68DB88082BE9
:1008F80005D17B681B681A680023D36396E07B6880
:100908001B681A680023136491E097F90330012BE0
:1009180046D17B689B88002B05D17B681B681B68C8
:1009280000225A6318E07B689B88042B05D17B68FA
:100938001B681A68002393630EE07B689B88082B6A
:1009480005D17B681B681A680023D36304E07B68C1
:100958001B681A68002313647B68DB88002B05D1A9
:100968007B681B681B683A885A6360E07B68DB8891
:10097800042B05D17B681B681A683B88936355E094
:100988007B68DB88082B05D17B681B681A683B8865
:10099800D3634BE07B681B681A683B88136446E0A6
:1009A8007B689B88002B05D17B681B681B6800222D
:1009B8005A6318E07B689B88042B05D17B681B6809
:1009C8001A68002393630EE07B689B88082B05D187
:1009D8007B681B681A680023D36304E07B681B6884
:1009E8001A68002313647B68DB88002B05D17B68B9
:1009F8001B681B6800225A6319E07B68DB88042B9C
:100A080005D17B681B681A68002393630FE07B6835
:100A1800DB88082B05D17B681B681A680023D36321
:100A280005E07B681B681A680023136400BF0C3755
:100A3800BD465DF8047B704780B483B000AF786032
:100A48000B467B807B689B88002B05D17B681B68E5
:100A58001B687A885A6319E07B689B88042B05D148
:100A68007B681B681A687B8893630FE07B689B88A8
:100A7800082B05D17B681B681A687B88D36305E05F
:100A88007B681B681A687B88136400BF0C37BD46F7
:100A98005DF8047B7047000080B500AF01F062F894
:100AA80000F01EF800F0E6FB00F0C4FB00F0E2F9ED
:100AB80000F082FA00F07CF800F004F900F054F934
:100AC80000F040FB00F02AFA00F08AFB00F0F2FC8C
:100AD8000248FFF71BFDFFF733FEFCE72C0300205D
:100AE80080B594B000AF07F12003302200211846EA
:100AF80005F014F807F10C0300221A605A609A6096
:100B0800DA601A610023BB60274B1B6C264A43F04E
:100B180080531364244B1B6C03F08053BB60BB6889
:100B280000237B60214B1B68204A43F480431360F9
:100B38001E4B1B6803F480437B607B6802233B6287
:100B48000123FB6210233B630223BB630023FB6387
:100B580008233B6448237B640223BB640423FB64AF
:100B680007F12003184602F02FF90346002B01D0A5
:100B780000F09AFC0F23FB6002233B6100237B619A
:100B88004FF48053BB610023FB6107F10C03022182
:100B9800184602F091FB0346002B01D000F084FCBC
:100BA80000BF5037BD4680BD00380240007000408D
:100BB80080B584B000AF3B4600221A605A609A6044
:100BC800DA603D4B3D4A1A603B4B00225A603A4B73
:100BD80000229A60384B01221A61374B01221A769B
:100BE800354B002283F82020334B0022DA62324B47
:100BF800334A9A62304B0022DA602F4B0522DA61C1
:100C08002D4B002283F830202B4B01225A612A48B1
:100C180001F01AF80346002B01D000F045FC002330
:100C28003B6001237B600023BB603B46194622489A
:100C380001F04EF80346002B01D000F035FC0423E8
:100C48003B6002237B603B4619461B4801F040F895
:100C58000346002B01D000F027FC05233B6003234B
:100C68007B603B461946144801F032F80346002BD6
:100C780001D000F019FC06233B6004237B603B464F
:100C880019460D4801F024F80346002B01D000F066
:100C98000BFC07233B6005237B603B46194606484F
:100CA80001F016F80346002B01D000F0FDFB00BF51
:100CB8001037BD4680BD00BFD40000200020014091
:100CC8000100000F80B584B000AF3B4600221A60D7
:100CD8005A609A60DA60214B214A1A601F4B002241
:100CE8005A601E4B00229A601C4B00221A611B4B53
:100CF80000221A76194B002283F82020174B002275
:100D0800DA62164B174A9A62144B0022DA60134BC8
:100D18000122DA61114B002283F830200F4B0122A7
:100D28005A610E4800F090FF0346002B01D000F0F6
:100D3800BBFB08233B6001237B600023BB603B4671
:100D48001946064800F0C4FF0346002B01D000F006
:100D5800ABFB00BF1037BD4680BD00BF1C010020A3
:100D6800002101400100000F80B58AB000AF07F1F3
:100D7800180300221A605A609A60DA6007F11003BB
:100D880000221A605A603B4600221A605A609A6034
:100D9800DA60374B4FF080421A60354B47225A6071
:100DA800334B00229A60324B4FF6FF72DA60304BB9
:100DB80000221A612E4B00229A612D4802F05CFC39
:100DC8000346002B01D000F06FFB4FF48053BB614A
:100DD80007F118031946264803F044F80346002B88
:100DE80001D000F061FB224802F0EEFC0346002B24
:100DF80001D000F059FB00233B6100237B6107F120
:100E0800100319461A4803F03DFD0346002B01D094
:100E180000F04AFB00233B6001237B600023BB609A
:100E28000023FB603B4604221946114802F0BBFE32
:100E38000346002B01D000F037FB3B460822194639
:100E48000B4802F0B0FE0346002B01D000F02CFB4B
:100E58003B460C221946064802F0A5FE0346002B25
:100E680001D000F021FB00BF2837BD4680BD00BF80
:100E7800C401002080B58CB000AF07F10C03242218
:100E88000021184604F04AFE3B1D00221A605A60F1
:100E9800204B214A1A601F4B00225A601D4B00222A
:100EA8009A601C4B4FF6FF72DA601A4B00221A61E7
:100EB800184B00229A610123FB6000233B61012348
:100EC8007B610023BB610023FB6100233B6201239C
:100ED8007B620023BB620023FB6207F10C03194607
:100EE8000C4802F0CAFC0346002B01D000F0DCFAE3
:100EF80000237B600023BB603B1D1946054803F0B7
:100F0800C1FC0346002B01D000F0CEFA00BF3037F9
:100F1800BD4680BD0C0200200004004080B586B0AC
:100F280000AF07F1080300221A605A609A60DA607D
:100F38003B4600221A605A601D4B1E4A1A601C4B21
:100F480040F2CF225A601A4B00229A60184B632253
:100F5800DA60174B00221A61154B00229A61144877
:100F680002F08AFB0346002B01D000F09DFA4FF4F3
:100F78008053BB6007F1080319460D4802F072FF61
:100F88000346002B01D000F08FFA00233B600023BA
:100F98007B603B461946064803F074FC0346002B69
:100FA80001D000F081FA00BF1837BD4680BD00BFF0
:100FB800540200200008004080B596B000AF07F149
:100FC800480300221A605A609A60DA6007F1400309
:100FD80000221A605A6007F1240300221A605A603E
:100FE8009A60DA601A615A619A613B1D20220021D9
:100FF800184604F093FD514B514A1A604F4B40F28A
:10100800CF225A604D4B00229A604C4B40F2FF327F
:10101800DA604A4B00221A61484B00225A61474B5A
:1010280000229A61454802F027FB0346002B01D0B5
:1010380000F03AFA4FF48053BB6407F148031946AD
:101048003E4802F00FFF0346002B01D000F02CFAB7
:101058003A4802F060FB0346002B01D000F024FA66
:1010680000233B6400237B6407F14003194633489F
:1010780003F008FC0346002B01D000F015FA6023AA
:101088007B626423BB620023FB6200233B63002373
:101098007B630023BB630023FB6307F12403002267
:1010A8001946264802F01CFE0346002B01D000F02A
:1010B800FBF907F1240304221946204802F010FE28
:1010C8000346002B01D000F0EFF907F124030822B2
:1010D80019461A4802F004FE0346002B01D000F01E
:1010E800E3F907F124030C221946144802F0F8FD2D
:1010F8000346002B01D000F0D7F900237B600023C2
:10110800BB600023FB6000233B6100237B614FF43D
:101118000053BB6100233B623B1D1946074803F09F
:101128002DFC0346002B01D000F0BEF9034800F067
:10113800C7FB00BF5837BD4680BD00BF9C020020DA
:101148000004014080B588B000AF3B1D00221A6042
:101158005A609A60DA601A615A619A611E4B1F4A96
:101168001A601D4B8F225A601B4B00229A601A4B43
:1011780042F20F72DA60184B00221A61164B0022F5
:101188009A61154802F078FA0346002B01D000F066
:101198008BF9114802F0BFFA0346002B01D000F08A
:1011A80083F960237B6040F2ED23BB600023FB6082
:1011B80000237B613B1D00221946074802F090FD81
:1011C8000346002B01D000F06FF9034800F078FBCC
:1011D80000BF2037BD4680BDE40200200044014026
:1011E80080B500AF114B124A1A60104B4FF41652DB
:1011F8005A600E4B00229A600C4B0022DA600B4BAF
:1012080000221A61094B0C225A61084B00229A618C
:10121800064B0022DA61054803F016FC0346002B52
:1012280001D000F041F900BF80BD00BF2C030020B1
:101238000048004080B582B000AF00237B600C4BB3
:101248001B6B0B4A43F480031363094B1B6B03F4BA
:1012580080037B607B6800220021382001F031F890
:10126800382001F04AF800BF0837BD4680BD00BFEE
:101278000038024080B58CB000AF07F11C03002293
:101288001A605A609A60DA601A610023BB61774B72
:101298001B6B764A43F010031363744B1B6B03F00C
:1012A8001003BB61BB6900237B61704B1B6B6F4AEA
:1012B80043F0800313636D4B1B6B03F080037B616A
:1012C8007B6900233B61694B1B6B684A43F004034D
:1012D8001363664B1B6B03F004033B613B690023FC
:1012E800FB60624B1B6B614A43F0010313635F4B66
:1012F8001B6B03F00103FB60FB680023BB605B4BC7
:101308001B6B5A4A43F002031363584B1B6B03F0E1
:101318000203BB60BB6800237B60544B1B6B534AC2
:1013280043F008031363514B1B6B03F008037B6006
:101338007B68002208214E4801F012FD00224FF27E
:1013480004014C4801F00CFD00224FF680714A4818
:1013580001F006FD00224FF48071484801F000FDBD
:1013680000224FF4F851464801F0FAFC1C23FB61B7
:1013780000233B6200237B6207F11C0319463E48A9
:1013880001F052FB0223FB6100233B6200237B62D6
:1013980007F11C031946364801F046FB0823FB6198
:1013A80001233B6200237B620023BB6207F11C031D
:1013B80019462F4801F038FB4FF20403FB61012363
:1013C8003B6200237B620023BB6207F11C031946C2
:1013D800284801F029FB4FF68073FB6101233B622B
:1013E80000237B620023BB6207F11C0319462248D5
:1013F80001F01AFB4FF48073FB6101233B62002369
:101408007B620023BB6207F11C0319461B4801F0ED
:101418000BFB4FF44053FB6100233B6200237B62CC
:1014280007F11C031946154801F0FEFA4FF4F8536A
:10143800FB6101233B6200237B620023BB6207F14F
:101448001C0319460E4801F0EFFAC023FB614FF464
:1014580088133B6200237B6207F11C031946074887
:1014680001F0E2FA00BF3037BD4680BD00380240C7
:10147800000802400004024000100240000C024034
:101488000000024080B582B000AF78607B681A68BF
:10149800044B1B689A4201D100F03AF800BF0837A4
:1014A800BD4680BD5402002080B400AF72B600BFB4
:1014B80000BFFDE780B584B000AF144B1B68002B5C
:1014C80006D1124B00221A60104B00225A6018E015
:1014D8000E4B1B68FB600023FB720AE0FB687B6015
:1014E800FB685B68FB60786804F004FBFB7A0133F7
:1014F800FB72FA7A054B5B689A42EFD3034B0022E2
:101508001A6000BF1037BD4680BD00BF74030020BD
:1015180080B400AF0C4B1B68002B0FD00A4B1B6824
:101528009B68002B04D1084B1B6801221A7406E043
:10153800054B1B689A68013A9A6000E000BFBD46F7
:101548005DF8047B704700BF7403002080B483B04B
:1015580000AF00237B60104B5B6C0F4A43F4804361
:1015680053640D4B5B6C03F480437B607B68002302
:101578003B60094B1B6C084A43F080531364064BCD
:101588001B6C03F080533B603B6800BF0C37BD46C3
:101598005DF8047B704700BF0038024080B58CB00E
:1015A80000AF786007F11C0300221A605A609A6045
:1015B800DA601A617B681B68464A934258D1002357
:1015C800BB61454B5B6C444A43F480735364424BA4
:1015D8005B6C03F48073BB61BB6900237B613E4B8A
:1015E8001B6B3D4A43F0010313633B4B1B6B03F03A
:1015F80001037B617B69F123FB6103233B620023C9
:101608007B6207F11C031946344801F00DFA344B8C
:10161800344A1A60324B00225A60314B00229A60D9
:101628002F4B0022DA602E4B4FF480621A612C4B4C
:101638004FF400625A612A4B4FF400529A61284BCA
:101648004FF48072DA61264B00221A62244B002282
:101658005A62234800F06CFE0346002B01D0FFF7C6
:1016680023FF7B681E4A9A631D4A7B6893632CE0BC
:101678007B681B681C4A934227D100233B61164BA9
:101688005B6C154A43F400735364134B5B6C03F4AF
:1016980000733B613B690023FB600F4B1B6B0E4AD9
:1016A80043F0020313630C4B1B6B03F00203FB6054
:1016B800FB680123FB6103233B6200237B6207F184
:1016C8001C031946094801F0AFF900BF3037BD4681
:1016D80080BD00BF002001400038024000000240E9
:1016E800640100201064024000210140000402400F
:1016F80080B58CB000AF786007F11C0300221A6037
:101708005A609A60DA601A617B681B68B3F1804F8F
:1017180034D10023BB613D4B1B6C3C4A43F00103B1
:1017280013643A4B1B6C03F00103BB61BB690023D4
:101738007B61364B1B6B354A43F001031363334B14
:101748001B6B03F001037B617B690E23FB610223A2
:101758003B6200237B620023BB620123FB6207F12B
:101768001C0319462A4801F05FF9002200211C20B9
:1017780000F0A7FD1C2000F0C0FD42E07B681B685C
:10178800244A934216D100233B61204B1B6C1F4A0D
:1017980043F0040313641D4B1B6C03F004033B610B
:1017A8003B69002200211E2000F08BFD1E2000F066
:1017B800A4FD26E07B681B68174A93420ED10023DC
:1017C800FB60124B5B6C114A43F0020353640F4BEE
:1017D8005B6C03F00203FB60FB6812E07B681B682C
:1017E8000E4A93420DD10023BB60084B5B6C074A3D
:1017F80043F400335364054B5B6C03F40033BB6064
:10180800BB6800BF3037BD4680BD00BF003802400E
:10181800000002400008004000040140004401406C
:1018280080B58AB000AF786007F1140300221A600F
:101838005A609A60DA601A617B681B681D4A934295
:1018480033D100233B611C4B1B6C1B4A43F0020342
:101858001364194B1B6C03F002033B613B690023C3
:10186800FB60154B1B6B144A43F002031363124BC6
:101878001B6B03F00203FB60FB6830237B610223D0
:10188800BB610023FB6100233B6202237B6207F1FB
:1018980014031946094801F0C7F8002200211D2049
:1018A80000F00FFD1D2000F028FD00BF2837BD46C1
:1018B80080BD00BF00040040003802400004024020
:1018C80080B58AB000AF786007F1140300221A606F
:1018D8005A609A60DA601A617B681B68254A9342ED
:1018E8001FD100233B61244B1B6B234A43F00403A5
:1018F8001363214B1B6B03F004033B613B694FF4FB
:1019080070737B610223BB610023FB6100233B6290
:1019180003237B6207F114031946184801F084F881
:1019280023E07B681B68164A93421ED10023FB60A4
:10193800114B1B6B104A43F0020313630E4B1B6BD6
:1019480003F00203FB60FB684FF480737B610223A2
:10195800BB610023FB6100233B6203237B6207F129
:1019680014031946074801F05FF800BF2837BD4641
:1019780080BD00BF0004014000380240000802405A
:10198800004401400004024080B58AB000AF78608E
:1019980007F1140300221A605A609A60DA601A612B
:1019A8007B681B681D4A934234D100233B611C4B62
:1019B8001B6C1B4A43F480231364194B1B6C03F400
:1019C80080233B613B690023FB60154B1B6B144A6A
:1019D80043F002031363124B1B6B03F00203FB601B
:1019E800FB684FF440637B610223BB610023FB610A
:1019F80003233B6207237B6207F114031946094856
:101A080001F012F800220021272000F05AFC2720BC
:101A180000F073FC00BF2837BD4680BD0048004079
:101A2800003802400004024080B400AF00BFFDE768
:101A380080B400AF00BFFDE780B400AF00BFFDE792
:101A480080B400AF00BFFDE780B400AF00BFFDE782
:101A580080B400AF00BFBD465DF8047B704780B41A
:101A680000AF00BFBD465DF8047B704780B400AF8F
:101A780000BFBD465DF8047B704780B500AF00F03D
:101A8800C3F800BF80BD000080B500AF024801F078
:101A98009AFF00BF80BD00BFC401002080B500AF21
:101AA800024801F090FF00BF80BD00BF0C0200207B
:101AB80080B500AF024801F086FF00BF80BD00BFBF
:101AC8005402002080B500AF024803F0BDF800BF03
:101AD80080BD00BF2C03002080B500AF024800F095
:101AE80067FD00BF80BD00BF6401002080B400AF67
:101AF800064BD3F88830054A43F47003C2F888309F
:101B080000BFBD465DF8047B704700BF00ED00E0F4
:101B1800DFF834D00D480E490E4A002302E0D458AD
:101B2800C4500433C4188C42F9D30B4A0B4C00231D
:101B380001E013600432A242FBD3FFF7D7FF03F0A2
:101B4800F5FFFEF7A9FF7047000002200000002003
:101B580060000020E85C000860000020C00400204D
:101B6800FEE7000080B500AF0E4B1B680D4A43F43A
:101B7800007313600B4B1B680A4A43F480631360BD
:101B8800084B1B68074A43F480731360032000F076
:101B98008DFB0F2000F008F8FFF7D8FC002318464B
:101BA80080BD00BF003C024080B582B000AF7860C5
:101BB800124B1A68124B1B7819464FF47A73B3FB11
:101BC800F1F3B2FBF3F3184600F0A5FB0346002B34
:101BD80001D001230EE07B680F2B0AD80022796818
:101BE8004FF0FF3000F06DFB064A7B68136000235E
:101BF80000E0012318460837BD4680BD04000020D8
:101C08000C0000200800002080B400AF064B1B78B1
:101C18001A46064B1B681344044A136000BFBD46AE
:101C28005DF8047B704700BF0C0000207C03002097
:101C380080B400AF034B1B681846BD465DF8047BB3
:101C4800704700BF7C03002080B584B000AF786087
:101C58000023FB737B68002B01D1012333E07B68F1
:101C68001B6C002B09D17868FFF798FC7B68002271
:101C78005A647B68002283F83C207B681B6C03F065
:101C88001003002B18D17B681B6C23F4885323F0B6
:101C9800020343F002027B681A64786800F03AF99C
:101CA8007B6800225A647B681B6C23F0030343F0B3
:101CB80001027B681A6401E00123FB737B68002240
:101CC80083F83C20FB7B18461037BD4680BD0000DA
:101CD80080B485B000AF786039600023BB607B6852
:101CE80093F83C30012B01D1022305E17B680122E6
:101CF80083F83C203B681B68092B25D97B681B6847
:101D0800D9683B681B689BB21A4613465B001344AC
:101D18001E3B072202FA03F3DA437B681B680A407A
:101D2800DA607B681B68D9683B689A683B681B68FF
:101D38009BB2184603465B0003441E3B9A407B68EF
:101D48001B680A43DA6022E07B681B6819693B68F4
:101D58001B689BB21A4613465B001344072202FA1B
:101D680003F3DA437B681B680A401A617B681B68C7
:101D780019693B689A683B681B689BB2184603461A
:101D88005B0003449A407B681B680A431A613B68FE
:101D98005B68062B24D87B681B68596B3B685A68BC
:101DA80013469B001344053B1F2202FA03F3DA4350
:101DB8007B681B680A405A637B681B68596B3B68E1
:101DC8001B689BB218463B685A6813469B0013442D
:101DD800053B00FA03F27B681B680A435A634CE030
:101DE8003B685B680C2B24D87B681B68196B3B68C5
:101DF8005A6813469B001344233B1F2202FA03F33D
:101E0800DA437B681B680A401A637B681B68196B96
:101E18003B681B689BB218463B685A6813469B0090
:101E28001344233B00FA03F27B681B680A431A63D6
:101E380023E07B681B68D96A3B685A6813469B0095
:101E48001344413B1F2202FA03F3DA437B681B6801
:101E58000A40DA627B681B68D96A3B681B689BB2D8
:101E680018463B685A6813469B001344413B00FAE6
:101E780003F27B681B680A43DA62224BFB607B68CB
:101E88001B68214A934209D13B681B68122B05D174
:101E9800FB685B6843F48002FB685A607B681B68D8
:101EA800194A934223D13B681B68102B03D03B6827
:101EB8001B68112B1BD1FB685B6843F40002FB68AD
:101EC8005A603B681B68102B11D1104B1B68104AD5
:101ED800A2FB03239A0C13469B0013445B00BB60D0
:101EE80002E0BB68013BBB60BB68002BF9D17B6893
:101EF800002283F83C20002318461437BD465DF8BD
:101F0800047B7047002301400020014004000020AA
:101F180083DE1B4380B485B000AF7860794BFB60EB
:101F2800FB685B6823F44032FB685A60FB685A68B8
:101F38007B685B681A43FB685A607B681B685A6851
:101F48007B681B6822F480725A607B681B6859683A
:101F58007B681B691A027B681B680A435A607B68A6
:101F68001B685A687B681B6822F040725A607B685D
:101F78001B6859687B689A687B681B680A435A60C3
:101F88007B681B689A687B681B6822F400629A6009
:101F98007B681B6899687B68DA687B681B680A43FA
:101FA8009A607B689B6A584A934222D07B681B6878
:101FB8009A687B681B6822F070629A607B681B686D
:101FC80099687B689A6A7B681B680A439A607B6891
:101FD8001B689A687B681B6822F040529A607B688D
:101FE8001B6899687B68DA6A7B681B680A439A6091
:101FF8000FE07B681B689A687B681B6822F0706238
:102008009A607B681B689A687B681B6822F040525C
:102018009A607B681B689A687B681B6822F00202DA
:102028009A607B681B6899687B681B7E5A007B688E
:102038001B680A439A607B6893F82030002B1BD0FA
:102048007B681B685A687B681B6842F400625A60A8
:102058007B681B685A687B681B6822F460425A6078
:102068007B681B6859687B685B6A013B5A037B681D
:102078001B680A435A6007E07B681B685A687B68DC
:102088001B6822F400625A607B681B68DA6A7B6806
:102098001B6822F47002DA627B681B68D96A7B6865
:1020A800DB69013B1A057B681B680A43DA627B68B7
:1020B8001B689A687B681B6822F400729A607B68C8
:1020C8001B6899687B6893F830305A027B681B68F4
:1020D8000A439A607B681B689A687B681B6822F4CD
:1020E80080629A607B681B6899687B685B699A0262
:1020F8007B681B680A439A6000BF1437BD465DF8C9
:10210800047B7047002301400100000F80B485B0B4
:1021180000AF78607B6803F00703FB600C4BDB685B
:10212800BB60BA684FF6FF031340BB60FB681A0236
:10213800BB68134343F0BF6343F40033BB60044AF6
:10214800BB68D36000BF1437BD465DF8047B704799
:1021580000ED00E080B400AF044BDB681B0A03F01D
:1021680007031846BD465DF8047B704700ED00E0A4
:1021780080B483B000AF0346FB7197F90730002B9A
:102188000BDBFB7903F01F02074997F907305B095E
:10219800012000FA02F241F8232000BF0C37BD46A7
:1021A8005DF8047B704700BF00E100E080B483B0B5
:1021B80000AF03463960FB7197F90730002B0ADB43
:1021C8003B68DAB20C4997F907301201D2B20B44D6
:1021D80083F800230AE03B68DAB20849FB7903F088
:1021E8000F03043B1201D2B20B441A7600BF0C371E
:1021F800BD465DF8047B704700E100E000ED00E0BB
:1022080080B489B000AFF860B9607A60FB6803F009
:102218000703FB61FB69C3F10703042B28BF0423F1
:10222800BB61FB690433062B02D9FB69033B00E061
:1022380000237B614FF0FF32BB6902FA03F3DA43F4
:10224800BB681A407B699A404FF0FF317B6901FAFD
:1022580003F3D9437B680B40134318462437BD4624
:102268005DF8047B7047000080B582B000AF7860ED
:102278007B68013BB3F1807F01D301230FE00A4A59
:102288007B68013B53600F214FF0FF30FFF78EFF53
:10229800054B00229A60044B07221A600023184657
:1022A8000837BD4680BD00BF10E000E080B582B0B1
:1022B80000AF78607868FFF729FF00BF0837BD4690
:1022C80080BD80B586B000AF0346B9607A60FB7305
:1022D80000237B61FFF73EFF78617A68B968786907
:1022E800FFF78EFF024697F90F3011461846FFF7A1
:1022F8005DFF00BF1837BD4680BD80B582B000AF16
:102308000346FB7197F907301846FFF731FF00BF06
:102318000837BD4680BD80B582B000AF7860786868
:10232800FFF7A2FF034618460837BD4680BD0000E8
:1023380080B586B000AF786000237B61FFF778FC3A
:1023480038617B68002B01D1012399E07B68022268
:1023580083F835207B68002283F834207B681B686B
:102368001A687B681B6822F001021A600FE0FFF709
:102378005FFC02463B69D31A052B08D97B682022EB
:102388005A657B68032283F83520032378E07B684D
:102398001B681B6803F00103002BE8D17B681B68EE
:1023A8001B687B617A69384B13407B617B685A688C
:1023B8007B689B681A437B68DB681A437B681B69E8
:1023C8001A437B685B691A437B689B691A437B687D
:1023D800DB691A437B681B6A13437A6913437B6181
:1023E8007B685B6A042B07D17B68DA6A7B681B6BA6
:1023F80013437A6913437B617B681B687A691A60A7
:102408007B681B685B697B617B6923F007037B61E1
:102418007B685B6A7A6913437B617B685B6A042B20
:1024280017D17B689B6A7A6913437B617B68DB6A97
:10243800002B0ED0786800F07BFA0346002B08D0FA
:102448007B6840225A657B68012283F83520012386
:1024580016E07B681B687A695A61786800F032FA7E
:102468000346FB607B68DB6D3F229A40FB689A60FD
:102478007B6800225A657B68012283F83520002397
:1024880018461837BD4680BD3F8010F080B584B02F
:1024980000AF78607B689B6DFB60FFF7C9FBB86095
:1024A8007B6893F83530DBB2022B08D07B6880223A
:1024B8005A657B68002283F83420012352E07B6848
:1024C8001B681A687B681B6822F016021A607B6812
:1024D8001B685A697B681B6822F080025A617B6816
:1024E8001B6C002B03D17B689B6C002B07D07B688F
:1024F8001B681A687B681B6822F008021A607B68F0
:102508001B681A687B681B6822F001021A6013E0D6
:10251800FFF78EFB0246BB68D31A052B0CD97B68E4
:1025280020225A657B68032283F835207B680022C5
:1025380083F83420032315E07B681B681B6803F0CD
:102548000103002BE4D17B68DB6D3F229A40FB68D6
:102558009A607B68012283F835207B68002283F823
:102568003420002318461037BD4680BD80B483B0A0
:1025780000AF78607B6893F83530DBB2022B04D06B
:102588007B6880225A6501230CE07B68052283F86A
:1025980035207B681B681A687B681B6822F001027B
:1025A8001A60002318460C37BD465DF8047B704757
:1025B80080B586B000AF78600023BB608E4B1B6887
:1025C8008E4AA2FB03239B0A7B617B689B6D3B6160
:1025D8003B691B68FB607B68DB6D08229A40FB68DF
:1025E8001340002B1AD07B681B681B6803F0040398
:1025F800002B13D07B681B681A687B681B6822F065
:1026080004021A607B68DB6D08229A403B699A6075
:102618007B685B6D43F001027B685A657B68DB6D04
:1026280001229A40FB681340002B12D07B681B687C
:102638005B6903F08003002B0BD07B68DB6D012204
:102648009A403B699A607B685B6D43F002027B6845
:102658005A657B68DB6D04229A40FB681340002BA7
:1026680012D07B681B681B6803F00203002B0BD099
:102678007B68DB6D04229A403B699A607B685B6DDE
:1026880043F004027B685A657B68DB6D10229A4030
:10269800FB681340002B43D07B681B681B6803F062
:1026A8000803002B3CD07B68DB6D10229A403B6905
:1026B8009A607B681B681B6803F48023002B18D082
:1026C8007B681B681B6803F40023002B08D17B6818
:1026D8001B6C002B24D07B681B6C786898471FE024
:1026E8007B689B6C002B1BD07B689B6C7868984739
:1026F80016E07B681B681B6803F48073002B07D106
:102708007B681B681A687B681B6822F008021A60DD
:102718007B681B6C002B03D07B681B6C7868984720
:102728007B68DB6D20229A40FB681340002B00F089
:102738008F807B681B681B6803F01003002B00F078
:1027480087807B68DB6D20229A403B699A607B68B2
:1027580093F83530DBB2052B36D17B681B681A68D5
:102768007B681B6822F016021A607B681B685A692E
:102778007B681B6822F080025A617B681B6C002B07
:1027880003D17B689B6C002B07D07B681B681A6899
:102798007B681B6822F008021A607B68DB6D3F22A9
:1027A8009A403B699A607B68012283F835207B68F0
:1027B800002283F834207B681B6D002B7ED07B6859
:1027C8001B6D7868984779E07B681B681B6803F481
:1027D8008023002B1DD07B681B681B6803F4002333
:1027E800002B0DD17B685B6C002B31D07B685B6C58
:1027F800786898472CE000BF04000020B5814E1B84
:102808007B68DB6B002B23D07B68DB6B7868984791
:102818001EE07B681B681B6803F48073002B0FD1D4
:102828007B681B681A687B681B6822F010021A60B4
:102838007B68012283F835207B68002283F83420E6
:102848007B68DB6B002B03D07B68DB6B7868984771
:102858007B685B6D002B32D07B685B6D03F00103F6
:10286800002B22D07B68052283F835207B681B6803
:102878001A687B681B6822F001021A60BB68013382
:10288800BB607A699A4207D37B681B681B6803F0B0
:102898000103002BF2D100E000BF7B68012283F81E
:1028A80035207B68002283F834207B68DB6C002BA2
:1028B80005D07B68DB6C7868984700E000BF183764
:1028C800BD4680BD80B485B000AF78607B681B686A
:1028D800DBB2103B144AA2FB03231B09FB60134A1B
:1028E800FB6813441B781A467B68DA65FB68032B80
:1028F80009D97B681B6823F47F7323F003031A1D2F
:102908007B689A6507E07B681B6823F47F7323F074
:1029180003037A6893657B689B6D18461437BD4638
:102928005DF8047B704700BFABAAAAAAD05C000878
:1029380080B485B000AF78600023FB737B689B6A26
:10294800BB607B689B69002B1FD1BB68032B56D8E3
:1029580001A252F823F000BF71290008832900085A
:1029680071290008072A00087B68DB6A03F0807376
:10297800002B46D00123FB7343E07B68DB6AB3F18D
:10298800C07F40D10123FB733DE07B689B69B3F5B1
:10299800005F21D1BB68032B37D801A252F823F07E
:1029A800B9290008BF290008B9290008D129000859
:1029B8000123FB7330E07B68DB6A03F08073002B34
:1029C80025D00123FB7322E07B68DB6AB3F1C07F6B
:1029D8001FD10123FB731CE0BB68022B03D9BB6822
:1029E800032B03D018E00123FB7315E07B68DB6A37
:1029F80003F08073002B0ED00123FB730BE000BFA4
:102A08000AE000BF08E000BF06E000BF04E000BF26
:102A180002E000BF00E000BFFB7B18461437BD464C
:102A28005DF8047B704700BF80B489B000AF786060
:102A3800396000237B6100233B610023BB610023D5
:102A4800FB616BE10122FB6902FA03F37B613B68DE
:102A58001B687A6913403B613A697B699A4240F086
:102A68005A813B685B6803F00303012B05D03B6880
:102A78005B6803F00303022B30D17B689B68BB6162
:102A8800FB695B00032202FA03F3DB43BA691340D4
:102A9800BB613B68DA68FB695B0002FA03F3BA6959
:102AA8001343BB617B68BA699A607B685B68BB61EA
:102AB8000122FB6902FA03F3DB43BA691340BB61E5
:102AC8003B685B681B0903F00102FB6902FA03F328
:102AD800BA691343BB617B68BA695A603B685B6833
:102AE80003F00303032B17D07B68DB68BB61FB692A
:102AF8005B00032202FA03F3DB43BA691340BB61AC
:102B08003B689A68FB695B0002FA03F3BA691343EE
:102B1800BB617B68BA69DA603B685B6803F00303F2
:102B2800022B23D1FB69DA087B68083253F822307C
:102B3800BB61FB6903F007039B000F2202FA03F352
:102B4800DB43BA691340BB613B681A69FB6903F050
:102B580007039B0002FA03F3BA691343BB61FB69DD
:102B6800DA087B680832B96943F822107B681B6869
:102B7800BB61FB695B00032202FA03F3DB43BA691A
:102B88001340BB613B685B6803F00302FB695B00B1
:102B980002FA03F3BA691343BB617B68BA691A6026
:102BA8003B685B6803F44033002B00F0B4800023DB
:102BB800FB60604B5B6C5F4A43F4804353645D4B3E
:102BC8005B6C03F48043FB60FB685B4AFB699B0812
:102BD800023352F82330BB61FB6903F003039B0007
:102BE8000F2202FA03F3DB43BA691340BB617B6827
:102BF800524A93422BD07B68514A934225D07B6836
:102C0800504A93421FD07B684F4A934219D07B6841
:102C18004E4A934213D07B684D4A93420DD07B684D
:102C28004C4A934207D07B684B4A934201D1072311
:102C38000EE008230CE006230AE0052308E004233D
:102C480006E0032304E0022302E0012300E000235E
:102C5800FA6902F0030292009340BA691343BB6118
:102C68003549FB699B080233BA6941F823203B4B7D
:102C78009B68BB613B69DB43BA691340BB613B6836
:102C88005B6803F48013002B03D0BA693B691343D4
:102C9800BB61324ABB699360304BDB68BB613B69FF
:102CA800DB43BA691340BB613B685B6803F40013FC
:102CB800002B03D0BA693B691343BB61274ABB6940
:102CC800D360264B5B68BB613B69DB43BA69134041
:102CD800BB613B685B6803F40033002B03D0BA691F
:102CE8003B691343BB611D4ABB6953601B4B1B689F
:102CF800BB613B69DB43BA691340BB613B685B68F6
:102D080003F48033002B03D0BA693B691343BB61DA
:102D1800124ABB691360FB690133FB61FB690F2B26
:102D28007FF690AE00BF00BF2437BD465DF8047B38
:102D3800704700BF003802400038014000000240E0
:102D48000004024000080240000C0240001002404B
:102D58000014024000180240001C0240003C0140E0
:102D680080B483B000AF78600B467B8013467B70DD
:102D78007B78002B03D07A887B689A6103E07B8894
:102D88001A047B689A6100BF0C37BD465DF8047B66
:102D9800704780B485B000AF78600B467B807B6855
:102DA8005B69FB607A88FB6813401A04FB68D943A7
:102DB8007B880B401A437B689A6100BF1437BD4675
:102DC8005DF8047B7047000080B586B000AF78607E
:102DD8007B68002B01D1012367E27B681B6803F045
:102DE8000103002B75D0884B9B6803F00C03042B60
:102DF8000CD0854B9B6803F00C03082B12D1824B37
:102E08005B6803F48003B3F5800F0BD17E4B1B681E
:102E180003F40033002B5BD07B685B68002B57D131
:102E2800012342E27B685B68B3F5803F06D1764BAD
:102E38001B68754A43F4803313601DE07B685B6848
:102E4800B3F5A02F0CD1704B1B686F4A43F4802355
:102E580013606D4B1B686C4A43F4803313600BE0BE
:102E6800694B1B68684A23F480331360664B1B6800
:102E7800654A23F4802313607B685B68002B13D0BA
:102E8800FEF7D6FE386108E0FEF7D2FE02463B693F
:102E9800D31A642B01D9032307E25B4B1B6803F4A5
:102EA8000033002BF0D014E0FEF7C2FE386108E0D2
:102EB800FEF7BEFE02463B69D31A642B01D90323F1
:102EC800F3E1514B1B6803F40033002BF0D100E011
:102ED80000BF7B681B6803F00203002B63D04A4BDA
:102EE8009B6803F00C03002B0BD0474B9B6803F047
:102EF8000C03082B1CD1444B5B6803F48003002BA4
:102F080016D1414B1B6803F00203002B05D07B68E8
:102F1800DB68012B01D00123C7E13B4B1B6823F081
:102F2800F8027B681B69DB00374913430B603AE002
:102F38007B68DB68002B20D0344B01221A60FEF737
:102F480077FE386108E0FEF773FE02463B69D31A44
:102F5800022B01D90323A8E12B4B1B6803F00203C2
:102F6800002BF0D0284B1B6823F0F8027B681B6904
:102F7800DB00254913430B6015E0244B00221A603F
:102F8800FEF756FE386108E0FEF752FE02463B693E
:102F9800D31A022B01D9032387E11B4B1B6803F0CB
:102FA8000203002BF0D17B681B6803F00803002B99
:102FB80036D07B685B69002B16D0154B01221A604E
:102FC800FEF736FE386108E0FEF732FE02463B693E
:102FD800D31A022B01D9032367E10B4B5B6F03F074
:102FE8000203002BF0D01BE0094B00221A60FEF709
:102FF8001FFE38610EE0FEF71BFE02463B69D31A3E
:10300800022B07D9032350E1003802400000474251
:10301800800E4742884B5B6F03F00203002BEAD116
:103028007B681B6803F00403002B00F097800023E3
:10303800FB75814B1B6C03F08053002B0FD10023D1
:10304800BB607D4B1B6C7C4A43F0805313647A4B06
:103058001B6C03F08053BB60BB680123FB75774B87
:103068001B6803F48073002B18D1744B1B68734AD8
:1030780043F480731360FEF7DBFD386108E0FEF768
:10308800D7FD02463B69D31A022B01D903230CE171
:103098006A4B1B6803F48073002BF0D07B689B6835
:1030A800012B06D1644B1B6F634A43F0010313677E
:1030B8001CE07B689B68052B0CD15F4B1B6F5E4A3D
:1030C80043F0040313675C4B1B6F5B4A43F0010337
:1030D80013670BE0584B1B6F574A23F00103136724
:1030E800554B1B6F544A23F0040313677B689B6896
:1030F800002B15D0FEF79CFD38610AE0FEF798FD1D
:1031080002463B69D31A41F28832934201D903231C
:10311800CBE0494B1B6F03F00203002BEED014E009
:10312800FEF786FD38610AE0FEF782FD02463B693C
:10313800D31A41F28832934201D90323B5E03E4BBA
:103148001B6F03F00203002BEED1FB7D012B05D191
:10315800394B1B6C384A23F0805313647B689B6996
:10316800002B00F0A180344B9B6803F00C03082B64
:103178005CD07B689B69022B41D1314B00221A60DD
:10318800FEF756FD386108E0FEF752FD02463B693E
:10319800D31A022B01D9032387E0274B1B6803F0BE
:1031A8000073002BF0D17B68DA697B681B6A1A43CD
:1031B8007B685B6A9B011A437B689B6A5B08013BDF
:1031C8001B041A437B68DB6A1B061B4913434B60CD
:1031D8001B4B01221A60FEF72BFD386108E0FEF751
:1031E80027FD02463B69D31A022B01D903235CE071
:1031F800114B1B6803F00073002BF0D054E0104B08
:1032080000221A60FEF714FD386108E0FEF710FD91
:1032180002463B69D31A022B01D9032345E0064B2A
:103228001B6803F00073002BF0D13DE07B689B69BD
:10323800012B07D1012338E000380240007000401C
:10324800600047421B4B5B68FB607B689B69012BF6
:1032580028D0FB6803F480027B68DB699A4221D19D
:10326800FB6803F03F027B681B6A9A421AD1FA682E
:1032780047F6C07313407A68526A9201934211D19B
:10328800FB6803F440327B689B6A5B08013B1B04C4
:103298009A4207D1FB6803F070627B68DB6A1B0601
:1032A8009A4201D0012300E0002318461837BD4692
:1032B80080BD00BF0038024080B584B000AF7860A0
:1032C80039607B68002B01D10123CCE0684B1B6877
:1032D80003F007033A689A420CD9654B3A68D2B2B0
:1032E8001A70634B1B6803F007033A689A4201D0CF
:1032F8000123B8E07B681B6803F00203002B20D091
:103308007B681B6803F00403002B05D0594B9B68AE
:10331800584A43F4E05393607B681B6803F0080342
:10332800002B05D0534B9B68524A43F4604393608B
:10333800504B9B6823F0F0027B689B684D49134310
:103348008B607B681B6803F00103002B44D07B680B
:103358005B68012B07D1474B1B6803F40033002B34
:1033680019D101237FE07B685B68022B03D07B685F
:103378005B68032B07D13F4B1B6803F00073002BDE
:1033880009D101236FE03B4B1B6803F00203002BBC
:1033980001D1012367E0374B9B6823F003027B6868
:1033A8005B68344913438B60FEF742FCF8600AE01F
:1033B800FEF73EFC0246FB68D31A41F2883293427C
:1033C80001D903234FE02B4B9B6803F00C027B6869
:1033D8005B689B009A42EBD1254B1B6803F00703FF
:1033E8003A689A420CD2224B3A68D2B21A70204BF1
:1033F8001B6803F007033A689A4201D0012332E0C0
:103408007B681B6803F00403002B08D0194B9B68EA
:1034180023F4E0527B68DB68164913438B607B68B2
:103428001B6803F00803002B09D0124B9B6823F498
:1034380060427B681B69DB000E4913438B6000F018
:1034480021F802460B4B9B681B0903F00F030A493E
:10345800CB5C22FA03F3094A1360094B1B68184630
:10346800FEF7A2FB002318461037BD4680BD00BFFB
:10347800003C024000380240B85C0008040000200C
:10348800080000202DE9B04F90B000AF00237B6307
:103498000023FB6300233B630023BB63594B9B68FA
:1034A80003F00C03082B0DD0082B00F2A180002B91
:1034B80002D0042B03D09BE0534BBB639BE0534BE0
:1034C800BB6398E04F4B5B6803F03F037B634D4B56
:1034D8005B6803F48003002B28D04A4B5B689B0988
:1034E80000223B627A623B6AC3F308000021474B23
:1034F80003FB01F2002300FB03F31344434AA0FB40
:103508000212FA620A46BA62FA6A1344FB627B6BD9
:103518000022BB61FA61D7E90623D7E90A01FCF763
:1035280057FE02460B461346FB6353E0354B5B6878
:103538009B0900223B617A613B69C3F3080A4FF09B
:10354800000B52465B464FF000004FF00001590156
:1035580041EAD261500102460B46B2EB0A0863EB1E
:103568000B094FF000024FF000034FEA891343EABA
:1035780098634FEA8812B2EB080463EB09054FF031
:1035880000024FF00003EB0043EA5473E2001446D4
:103598001D4614EB0A033B6045EB0B037B604FF0C1
:1035A80000024FF00003D7E9004529468B02214667
:1035B80043EA915321468A02104619467B6B002242
:1035C800BB60FA60D7E90223FCF702FE02460B460D
:1035D8001346FB630B4B5B681B0C03F003030133BF
:1035E8005B003B63FA6B3B6BB2FBF3F3BB6302E03C
:1035F800054BBB6300BFBB6B18464037BD46BDE8F3
:10360800B08F00BF003802400024F40040787D01EC
:1036180080B400AF034B1B681846BD465DF8047BB9
:10362800704700BF0400002080B500AFFFF7F0FF2F
:103638000246054B9B689B0A03F007030349CB5CD2
:1036480022FA03F3184680BD00380240C85C00081F
:1036580080B500AFFFF7DCFF0246054B9B685B0BAC
:1036680003F007030349CB5C22FA03F3184680BD35
:1036780000380240C85C000880B582B000AF7860AE
:103688007B68002B01D1012341E07B6893F83D3032
:10369800DBB2002B06D17B68002283F83C207868D7
:1036A800FEF726F87B68022283F83D207B681A68BB
:1036B8007B6804331946104600F0C4FC7B6801227D
:1036C80083F846207B68012283F83E207B6801222C
:1036D80083F83F207B68012283F840207B68012221
:1036E80083F841207B68012283F842207B6801220D
:1036F80083F843207B68012283F844207B680122F9
:1037080083F845207B68012283F83D200023184672
:103718000837BD4680BD80B582B000AF78607B6851
:10372800002B01D1012341E07B6893F83D30DBB2E7
:10373800002B06D17B68002283F83C20786800F0D3
:1037480039F87B68022283F83D207B681A687B6819
:1037580004331946104600F075FC7B68012283F893
:1037680046207B68012283F83E207B68012283F88B
:103778003F207B68012283F840207B68012283F880
:1037880041207B68012283F842207B68012283F86C
:1037980043207B68012283F844207B68012283F858
:1037A80045207B68012283F83D200023184608370E
:1037B800BD4680BD80B483B000AF786000BF0C37D1
:1037C800BD465DF8047B704780B582B000AF786075
:1037D8007B68002B01D1012341E07B6893F83D30E1
:1037E800DBB2002B06D17B68002283F83C20786886
:1037F80000F039F87B68022283F83D207B681A685C
:103808007B6804331946104600F01CFC7B680122D3
:1038180083F846207B68012283F83E207B680122DA
:1038280083F83F207B68012283F840207B680122CF
:1038380083F841207B68012283F842207B680122BB
:1038480083F843207B68012283F844207B680122A7
:1038580083F845207B68012283F83D200023184621
:103868000837BD4680BD80B483B000AF786000BF24
:103878000C37BD465DF8047B704780B586B000AF55
:10388800786039607B68002B01D1012397E07B6861
:1038980093F83D30DBB2002B06D17B68002283F819
:1038A8003C207868FDF7BCFF7B68022283F83D2046
:1038B8007B681B689B687A68126823F4804323F04E
:1038C800070393607B681A687B68043319461046BF
:1038D80000F0B8FB7B681B689B687B617B681B6892
:1038E8009B693B617B681B681B6AFB603B681B68C4
:1038F8007A6913437B613B6923F4407323F0030324
:103908003B613B689A683B689B691B0213433A69B1
:1039180013433B613B6923F4406323F00C033B6191
:103928003B6923F4704323F0F0033B613B68DA689A
:103938003B68DB691B0213433A6913433B613B68ED
:103948001B691A013B681B6A1B0313433A6913433B
:103958003B61FB6823F02203FB60FB6823F08803CC
:10396800FB603B685A683B685B691B011343FA6854
:103978001343FB607B681B687A699A607B681B68E5
:103988003A699A617B681B68FA681A627B68012247
:1039980083F846207B68012283F83E207B68012259
:1039A80083F83F207B68012283F842207B6801224C
:1039B80083F843207B68012283F83D2000231846C2
:1039C8001837BD4680BD80B584B000AF78607B688D
:1039D8001B68DB68FB607B681B681B69BB60BB6896
:1039E80003F00203002B20D0FB6803F00203002B36
:1039F8001BD07B681B686FF002021A617B6801228A
:103A08001A777B681B689B6903F00303002B03D0BC
:103A1800786800F0F8FA05E0786800F0EAFA786863
:103A280000F0FBFA7B6800221A77BB6803F00403F6
:103A3800002B20D0FB6803F00403002B1BD07B680D
:103A48001B686FF004021A617B6802221A777B6890
:103A58001B689B6903F44073002B03D0786800F05F
:103A6800D2FA05E0786800F0C4FA786800F0D5FA70
:103A78007B6800221A77BB6803F00803002B20D06C
:103A8800FB6803F00803002B1BD07B681B686FF0F2
:103A980008021A617B6804221A777B681B68DB6955
:103AA80003F00303002B03D0786800F0ACFA05E0BC
:103AB800786800F09EFA786800F0AFFA7B68002218
:103AC8001A77BB6803F01003002B20D0FB6803F0C3
:103AD8001003002B1BD07B681B686FF010021A6163
:103AE8007B6808221A777B681B68DB6903F44073DC
:103AF800002B03D0786800F086FA05E0786800F0BB
:103B080078FA786800F089FA7B6800221A77BB682F
:103B180003F00103002B0CD0FB6803F00103002B1A
:103B280007D07B681B686FF001021A617868FDF79F
:103B3800A9FCBB6803F08003002B0CD0FB6803F0E2
:103B48008003002B07D07B681B686FF080021A6126
:103B5800786800F06FFFBB6803F04003002B0CD0BF
:103B6800FB6803F04003002B07D07B681B686FF0ED
:103B780040021A61786800F05AFABB6803F0200323
:103B8800002B0CD0FB6803F02003002B07D07B68C8
:103B98001B686FF020021A61786800F041FF00BFCF
:103BA8001037BD4680BD80B586B000AFF860B960FB
:103BB8007A600023FB75FB6893F83C30012B01D138
:103BC800022388E0FB68012283F83C207B68002BF5
:103BD8001BD1FB681868BB681968BB685A68BB6862
:103BE800DB6800F08BFCFB681B689A69FB681B6844
:103BF80022F00C029A61FB681B689969BB689A6895
:103C0800FB681B680A439A6160E07B68042B1CD13F
:103C1800FB681868BB681968BB685A68BB68DB68CA
:103C280000F00FFDFB681B689A69FB681B6822F4AB
:103C380040629A61FB681B689969BB689B681A02B5
:103C4800FB681B680A439A6140E07B68082B1BD11C
:103C5800FB681868BB681968BB685A68BB68DB688A
:103C680000F05CFDFB681B68DA69FB681B6822F0E2
:103C78000C02DA61FB681B68D969BB689A68FB6843
:103C88001B680A43DA6121E07B680C2B1CD1FB68B6
:103C98001868BB681968BB685A68BB68DB6800F0BD
:103CA80079FDFB681B68DA69FB681B6822F44062CF
:103CB800DA61FB681B68D969BB689B681A02FB68F4
:103CC8001B680A43DA6101E00123FB75FB680022E7
:103CD80083F83C20FB7D18461837BD4680BD0000A0
:103CE80080B586B000AFF860B9607A600023FB75D4
:103CF800FB6893F83C30012B01D10223AEE0FB684E
:103D0800012283F83C207B680C2B00F29F8001A2E3
:103D180052F823F0513D0008553E0008553E000872
:103D2800553E0008913D0008553E0008553E0008E4
:103D3800553E0008D33D0008553E0008553E000892
:103D4800553E0008133E0008FB681B68B968184612
:103D580000F024FAFB681B689A69FB681B6842F04C
:103D680008029A61FB681B689A69FB681B6822F065
:103D780004029A61FB681B689969BB681A69FB6849
:103D88001B680A439A6164E0FB681B68B9681846B7
:103D980000F074FAFB681B689A69FB681B6842F4B8
:103DA80000629A61FB681B689A69FB681B6822F4C9
:103DB80080629A61FB681B689969BB681B691A0273
:103DC800FB681B680A439A6143E0FB681B68B96893
:103DD800184600F0C9FAFB681B68DA69FB681B68BB
:103DE80042F00802DA61FB681B68DA69FB681B6845
:103DF80022F00402DA61FB681B68D969BB681A699A
:103E0800FB681B680A43DA6123E0FB681B68B96832
:103E1800184600F01DFBFB681B68DA69FB681B6825
:103E280042F40062DA61FB681B68DA69FB681B68A8
:103E380022F48062DA61FB681B68D969BB681B6978
:103E48001A02FB681B680A43DA6102E00123FB756A
:103E580000BFFB68002283F83C20FB7D184618371A
:103E6800BD4680BD80B584B000AF7860396000235E
:103E7800FB737B6893F83C30012B01D10223B4E03B
:103E88007B68012283F83C207B68022283F83D206E
:103E98007B681B689B68BB60BB6823F07703BB60CB
:103EA800BB6823F47F43BB607B681B68BA689A6071
:103EB8003B681B68B3F5005F3ED0B3F5005F00F2C6
:103EC8008780B3F5805F00F08680B3F5805F7FD888
:103ED800702B1AD0702B7BD8602B50D0602B77D8E2
:103EE800502B3CD0502B73D8402B58D0402B6FD838
:103EF800302B64D0302B6BD8202B60D0202B67D888
:103F0800002B5CD0102B5AD062E07B6818683B68A5
:103F180099683B685A683B68DB6800F093FC7B68EB
:103F28001B689B68BB60BB6843F07703BB607B681A
:103F38001B68BA689A604FE07B6818683B689968A4
:103F48003B685A683B68DB6800F07CFC7B681B6850
:103F58009A687B681B6842F480429A603CE07B6800
:103F680018683B6859683B68DB681A4600F03AFBFA
:103F78007B681B685021184600F049FC2CE07B68E0
:103F880018683B6859683B68DB681A4600F096FB7E
:103F98007B681B686021184600F039FC1CE07B68D0
:103FA80018683B6859683B68DB681A4600F01AFBDA
:103FB8007B681B684021184600F029FC0CE07B68F0
:103FC8001A683B681B681946104600F020FC03E09D
:103FD8000123FB7300E000BF7B68012283F83D20CA
:103FE8007B68002283F83C20FB7B18461037BD46CF
:103FF80080BD80B483B000AF786000BF0C37BD4689
:104008005DF8047B704780B483B000AF786000BF70
:104018000C37BD465DF8047B704780B483B000AFB1
:10402800786000BF0C37BD465DF8047B704780B4EC
:1040380083B000AF786000BF0C37BD465DF8047BE5
:104048007047000080B485B000AF786039607B6845
:104058001B68FB607B68464A934213D07B68B3F1C8
:10406800804F0FD07B68434A93420BD07B68424A0B
:10407800934207D07B68414A934203D07B68404A09
:10408800934208D1FB6823F07003FB603B685B68D0
:10409800FA681343FB607B68354A93422BD07B68F0
:1040A800B3F1804F27D07B68324A934223D07B6894
:1040B800314A93421FD07B68304A93421BD07B68B9
:1040C8002F4A934217D07B682E4A934213D07B68BD
:1040D8002D4A93420FD07B682C4A93420BD07B68C1
:1040E8002B4A934207D07B682A4A934203D07B68C5
:1040F800294A934208D1FB6823F44073FB603B686C
:10410800DB68FA681343FB60FB6823F080023B68B6
:104118005B691343FB607B68FA681A603B689A68BE
:104128007B68DA623B681A687B689A627B68104A27
:10413800934203D07B68124A934203D13B681A69C1
:104148007B681A637B6801225A617B681B6903F0EC
:104158000103012B05D17B681B6923F001027B68F1
:104168001A6100BF1437BD465DF8047B704700BF75
:10417800000001400004004000080040000C00401E
:104188000004014000400140004401400048014053
:1041980000180040001C00400020004080B487B098
:1041A80000AF786039607B681B6A7B617B681B6A3B
:1041B80023F001027B681A627B685B683B617B685D
:1041C8009B69FB60FB6823F07003FB60FB6823F0CE
:1041D8000303FB603B681B68FA681343FB607B6959
:1041E80023F002037B613B689B687A6913437B6118
:1041F8007B68204A934203D07B681F4A93420CD1C4
:104208007B6923F008037B613B68DB687A691343A9
:104218007B617B6923F004037B617B68154A9342C9
:1042280003D07B68144A934211D13B6923F480730D
:104238003B613B6923F400733B613B685B693A6906
:1042480013433B613B689B693A6913433B617B6855
:104258003A695A607B68FA689A613B685A687B6871
:104268005A637B687A691A6200BF1C37BD465DF8DD
:10427800047B7047000001400004014080B487B00F
:1042880000AF786039607B681B6A7B617B681B6A5A
:1042980023F010027B681A627B685B683B617B686D
:1042A8009B69FB60FB6823F4E043FB60FB6823F435
:1042B8004073FB603B681B681B02FA681343FB6092
:1042C8007B6923F020037B613B689B681B017A694B
:1042D80013437B617B68224A934203D07B68214A5F
:1042E80093420DD17B6923F080037B613B68DB68D7
:1042F8001B017A6913437B617B6923F040037B616F
:104308007B68174A934203D07B68164A934213D1BD
:104318003B6923F480633B613B6923F400633B61A1
:104328003B685B699B003A6913433B613B689B6947
:104338009B003A6913433B617B683A695A607B6822
:10434800FA689A613B685A687B689A637B687A69FD
:104358001A6200BF1C37BD465DF8047B704700BF7A
:10436800000001400004014080B487B000AF7860CD
:1043780039607B681B6A7B617B681B6A23F48072E7
:104388007B681A627B685B683B617B68DB69FB6002
:10439800FB6823F07003FB60FB6823F00303FB60FA
:1043A8003B681B68FA681343FB607B6923F400735E
:1043B8007B613B689B681B027A6913437B617B685E
:1043C800214A934203D07B68204A93420DD17B69EE
:1043D80023F400637B613B68DB681B027A69134343
:1043E8007B617B6923F480637B617B68164A934217
:1043F80003D07B68154A934213D13B6923F4805359
:104408003B613B6923F400533B613B685B691B01DB
:104418003A6913433B613B689B691B013A69134343
:104428003B617B683A695A607B68FA68DA613B6885
:104438005A687B68DA637B687A691A6200BF1C373E
:10444800BD465DF8047B7047000001400004014050
:1044580080B487B000AF786039607B681B6A3B61C5
:104468007B681B6A23F480527B681A627B685B68EE
:104478007B617B68DB69FB60FB6823F4E043FB60DE
:10448800FB6823F44073FB603B681B681B02FA68F7
:104498001343FB603B6923F400533B613B689B6813
:1044A8001B033A6913433B617B68124A934203D06A
:1044B8007B68114A934209D17B6923F480437B616D
:1044C8003B685B699B017A6913437B617B687A6906
:1044D8005A607B68FA68DA613B685A687B681A64D4
:1044E8007B683A691A6200BF1C37BD465DF8047BD9
:1044F800704700BF000001400004014080B487B04D
:1045080000AFF860B9607A603B60FB681B6A3B618A
:10451800FB681B6A23F00102FB681A62FB689B694F
:104528007B61FB68284A93421BD0FB68B3F1804F3C
:1045380017D0FB68254A934213D0FB68244A93425C
:104548000FD0FB68234A93420BD0FB68224A934260
:1045580007D0FB68214A934203D0FB68204A934264
:1045680001D1012300E00023002B08D07B6923F050
:1045780003037B617A697B6813437B6103E07B6992
:1045880043F001037B617B6923F0F0037B613B68A7
:104598001B01DBB27A6913437B613B6923F00A0391
:1045A8003B61BB6803F00A033A6913433B61FB684C
:1045B8007A699A61FB683A691A6200BF1C37BD467E
:1045C8005DF8047B704700BF000001400004004014
:1045D80000080040000C0040000401400040014079
:1045E8000018004080B487B000AFF860B9607A6006
:1045F800FB681B6A7B61FB681B6A23F00102FB688E
:104608001A62FB689B693B613B6923F0F0033B61DD
:104618007B681B013A6913433B617B6923F00A03FA
:104628007B617A69BB6813437B61FB683A699A616D
:10463800FB687A691A6200BF1C37BD465DF8047BC7
:10464800704780B487B000AFF860B9607A603B60AB
:10465800FB681B6A7B61FB681B6A23F01002FB681E
:104668001A62FB689B693B613B6923F440733B61B9
:104678007B681B023A6913433B613B6923F470432F
:104688003B613B681B039BB23A6913433B617B69FF
:1046980023F0A0037B61BB681B0103F0A0037A69C8
:1046A80013437B61FB683A699A61FB687A691A620D
:1046B80000BF1C37BD465DF8047B704780B487B0E7
:1046C80000AFF860B9607A60FB681B6A7B61FB68C1
:1046D8001B6A23F01002FB681A62FB689B693B6146
:1046E8003B6923F470433B617B681B033A691343BE
:1046F8003B617B6923F0A0037B61BB681B017A697E
:1047080013437B61FB683A699A61FB687A691A62AC
:1047180000BF1C37BD465DF8047B704780B487B086
:1047280000AFF860B9607A603B60FB681B6A7B6128
:10473800FB681B6A23F48072FB681A62FB68DB69FA
:104748003B613B6923F003033B613A697B68134390
:104758003B613B6923F0F0033B613B681B01DBB223
:104768003A6913433B617B6923F420637B61BB682F
:104778001B0203F420637A6913437B61FB683A697F
:10478800DA61FB687A691A6200BF1C37BD465DF8BA
:10479800047B704780B487B000AFF860B9607A6076
:1047A8003B60FB681B6A7B61FB681B6A23F48052D1
:1047B800FB681A62FB68DB693B613B6923F4407361
:1047C8003B617B681B023A6913433B613B6923F4F5
:1047D80070433B613B681B039BB23A6913433B61DF
:1047E8007B6923F420437B61BB681B0303F42043EC
:1047F8007A6913437B61FB683A69DA61FB687A6915
:104808001A6200BF1C37BD465DF8047B704780B450
:1048180085B000AF786039607B689B68FB60FB6897
:1048280023F07003FB603A68FB68134343F0070307
:10483800FB607B68FA689A6000BF1437BD465DF874
:10484800047B704780B487B000AFF860B9607A60C5
:104858003B60FB689B687B617B6923F47F437B61DA
:104868003B681A027B681A43BB6813437A6913438F
:104878007B61FB687A699A6000BF1C37BD465DF8AA
:10488800047B704780B485B000AF786039607B687E
:1048980093F83C30012B01D102235AE07B680122B6
:1048A80083F83C207B68022283F83D207B681B68E4
:1048B8005B68FB607B681B689B68BB60FB6823F0D8
:1048C8007003FB603B681B68FA681343FB607B68F6
:1048D8001B68FA685A607B681B68214A934222D099
:1048E8007B681B68B3F1804F1DD07B681B681D4A2D
:1048F800934218D07B681B681B4A934213D07B688D
:104908001B681A4A93420ED07B681B68184A934268
:1049180009D07B681B68174A934204D07B681B68E0
:10492800154A93420CD1BB6823F08003BB603B68F7
:104938005B68BA681343BB607B681B68BA689A6097
:104948007B68012283F83D207B68002283F83C20A5
:10495800002318461437BD465DF8047B704700BF36
:10496800000001400004004000080040000C004026
:1049780000040140004001400018004080B485B0A8
:1049880000AF786039600023FB607B6893F83C30A7
:10499800012B01D102233DE07B68012283F83C20F2
:1049A800FB6823F0FF023B68DB681343FB60FB688E
:1049B80023F440723B689B681343FB60FB6823F455
:1049C80080623B685B681343FB60FB6823F400620A
:1049D8003B681B681343FB60FB6823F480523B6809
:1049E8001B691343FB60FB6823F400523B685B6957
:1049F8001343FB60FB6823F480423B68DB69134385
:104A0800FB607B681B68FA685A647B68002283F83D
:104A18003C20002318461437BD465DF8047B7047D8
:104A280080B483B000AF786000BF0C37BD465DF836
:104A3800047B704780B483B000AF786000BF0C3748
:104A4800BD465DF8047B704780B582B000AF7860E2
:104A58007B68002B01D1012342E07B6893F8413049
:104A6800DBB2002B06D17B68002283F840207868EF
:104A7800FCF78AFF7B68242283F841207B681B6847
:104A8800DA687B681B6822F40052DA60786800F004
:104A9800BDFD7B681B681A697B681B6822F490421D
:104AA8001A617B681B685A697B681B6822F02A02B6
:104AB8005A617B681B68DA687B681B6842F400529D
:104AC800DA607B6800225A647B68202283F84120E0
:104AD8007B68202283F842207B6800225A630023E7
:104AE80018460837BD4680BD80B58AB002AFF86069
:104AF800B9603B601346FB8000237B61FB6893F839
:104B08004130DBB2202B75D1BB68002B02D0FB886B
:104B1800002B01D101236EE0FB6800225A64FB6878
:104B2800212283F84120FDF783F87861FB68FA8831
:104B38009A84FB68FA88DA84FB689B68B3F5805F1F
:104B480008D1FB681B69002B04D10023FB61BB68FB
:104B5800BB6103E0BB68FB610023BB612EE03B68DF
:104B680000937B6900228021F86800F01FFB034650
:104B7800002B05D0FB68202283F8412003233AE06C
:104B8800FB69002B0BD1BB691B881A46FB681B68A5
:104B9800C2F308025A60BB690233BB6107E0FB69D4
:104BA8001A78FB681B685A60FB690133FB61FB6874
:104BB800DB8C9BB2013B9AB2FB68DA84FB68DB8C26
:104BC8009BB2002BCBD13B6800937B69002240212C
:104BD800F86800F0EBFA0346002B05D0FB682022AA
:104BE80083F84120032306E0FB68202283F8412054
:104BF800002300E0022318462037BD4680BD80B55B
:104C080084B000AFF860B9601346FB80FB6893F886
:104C18004230DBB2202B12D1BB68002B02D0FB88BC
:104C2800002B01D101230BE0FB6800221A63FB88EB
:104C38001A46B968F86800F012FB034600E0022340
:104C480018461037BD4680BD80B5BAB000AF786051
:104C58007B681B681B68C7F8E4307B681B68DB68E7
:104C6800C7F8E0307B681B685B69C7F8DC30002355
:104C7800C7F8D8300023C7F8D430D7F8E43003F0A9
:104C88000F03C7F8D830D7F8D830002B0FD1D7F892
:104C9800E43003F02003002B09D0D7F8E03003F00C
:104CA8002003002B03D0786800F0F2FB5BE2D7F812
:104CB800D830002B00F0DE80D7F8DC3003F0010399
:104CC800002B06D1D7F8E03003F49073002B00F0E6
:104CD800D180D7F8E43003F00103002B0BD0D7F8CC
:104CE800E03003F48073002B05D07B685B6C43F0E5
:104CF80001027B685A64D7F8E43003F00403002B00
:104D08000BD0D7F8DC3003F00103002B05D07B680B
:104D18005B6C43F002027B685A64D7F8E43003F016
:104D28000203002B0BD0D7F8DC3003F00103002B73
:104D380005D07B685B6C43F004027B685A64D7F843
:104D4800E43003F00803002B11D0D7F8E03003F06B
:104D58002003002B05D1D7F8DC3003F00103002B2A
:104D680005D07B685B6C43F008027B685A647B68FB
:104D78005B6C002B00F0F281D7F8E43003F02003DD
:104D8800002B08D0D7F8E03003F02003002B02D026
:104D9800786800F07DFB7B681B685B6903F0400363
:104DA800402B0CBF01230023DBB2C7F8D4307B684B
:104DB8005B6C03F00803002B03D1D7F8D430002B29
:104DC8004FD0786800F085FA7B681B685B6903F050
:104DD8004003402B41D17B681B681433C7F89C30D3
:104DE800D7F89C3053E8003FC7F89830D7F8983088
:104DF80023F04003C7F8D0307B681B681433D7F81A
:104E0800D020C7F8A820C7F8A430D7F8A410D7F83E
:104E1800A82041E80023C7F8A030D7F8A030002B1D
:104E2800D9D17B68DB6B002B13D07B68DB6B7E4AA8
:104E38001A657B68DB6B1846FDF798FB0346002B69
:104E480016D07B68DB6B1B6D7A68D26B104698476F
:104E58000EE0786800F094F90AE0786800F090F9BC
:104E680006E0786800F08CF97B6800225A6475E1E6
:104E780000BF73E17B681B6B012B40F04F81D7F8B3
:104E8800E43003F01003002B00F04881D7F8E0303D
:104E980003F01003002B00F041810023BB607B6806
:104EA8001B681B68BB607B681B685B68BB60BB6872
:104EB8007B681B685B6903F04003402B40F0B680B9
:104EC8007B68DB6B1B685B68A7F8BE30B7F8BE3041
:104ED800002B00F045817B689B8DB7F8BE209A4275
:104EE80080F03E817B68B7F8BE20DA857B68DB6B93
:104EF800DB69B3F5807F00F088807B681B680C3322
:104F0800C7F88830D7F8883053E8003FC7F88430AE
:104F1800D7F8843023F48073C7F8B8307B681B68EF
:104F28000C33D7F8B820C7F89420C7F89030D7F8D2
:104F38009010D7F8942041E80023C7F88C30D7F8B0
:104F48008C30002BD9D17B681B6814337B677B6F4F
:104F580053E8003F3B673B6F23F00103C7F8B430C9
:104F68007B681B681433D7F8B420C7F88020FB6728
:104F7800F96FD7F8802041E80023BB67BB6F002B8F
:104F8800E1D17B681B6814333B663B6E53E8003FF6
:104F9800FB65FB6D23F04003C7F8B0307B681B68E6
:104FA8001433D7F8B020FA66BB66B96EFA6E41E8DA
:104FB80000237B667B6E002BE3D17B68202283F87D
:104FC80042207B6800221A637B681B680C33FB64F1
:104FD800FB6C53E8003FBB64BB6C23F01003C7F8BD
:104FE800AC307B681B680C33D7F8AC20BA657B659E
:104FF800796DBA6D41E800233B653B6D002BE3D129
:105008007B68DB6B1846FDF741FA7B6802225A631E
:105018007B689A8D7B68DB8D9BB2D31A9BB219464D
:10502800786800F0B7F89BE0A15300087B689A8D78
:105038007B68DB8D9BB2D31AA7F8CE307B68DB8DFB
:105048009BB2002B00F08E80B7F8CE30002B00F01A
:1050580089807B681B680C33BB63BB6B53E8003FDC
:105068007B637B6B23F49073C7F8C8307B681B683D
:105078000C33D7F8C8207A643B64396C7A6C41E801
:105088000023FB63FB6B002BE3D17B681B681433A5
:105098007B627B6A53E8003F3B623B6A23F0010373
:1050A800C7F8C4307B681B681433D7F8C4203A6348
:1050B800FB62F96A3A6B41E80023BB62BB6A002BCA
:1050C800E3D17B68202283F842207B6800221A63A0
:1050D8007B681B680C333B613B6953E8003FFB600E
:1050E800FB6823F01003C7F8C0307B681B680C33DB
:1050F800D7F8C020FA61BB61B969FA6941E80023B1
:105108007B617B69002BE3D17B6802225A63B7F885
:10511800CE301946786800F03DF823E0D7F8E4303F
:1051280003F08003002B09D0D7F8E03003F08003A8
:10513800002B03D0786800F043F914E0D7F8E43086
:1051480003F04003002B0ED0D7F8E03003F0400303
:10515800002B08D0786800F083F904E000BF02E073
:1051680000BF00E000BFE837BD4680BD80B483B013
:1051780000AF786000BF0C37BD465DF8047B704710
:1051880080B483B000AF786000BF0C37BD465DF8CF
:10519800047B704780B483B000AF78600B467B8097
:1051A80000BF0C37BD465DF8047B704780B586B0FC
:1051B80000AFF860B9603B601346FB713BE03B6AA7
:1051C800B3F1FF3F37D0FCF733FD02463B68D31AF3
:1051D8003A6A9A4202D33B6A002B01D103233AE090
:1051E800FB681B68DB6803F00403002B23D0BB6853
:1051F800802B20D0BB68402B1DD0FB681B681B6828
:1052080003F00803082B16D100237B61FB681B6899
:105218001B687B61FB681B685B687B617B69F8685E
:1052280000F057F8FB6808225A64FB68002283F8EC
:10523800402001230FE0FB681B681A68BB68134015
:10524800BA689A420CBF01230023DBB21A46FB79E5
:105258009A42B4D0002318461837BD4680BD80B4A2
:1052680085B000AFF860B9601346FB80FB68BA6888
:105278009A62FB68FA889A85FB68FA88DA85FB687F
:1052880000225A64FB68222283F84220FB681B69CB
:10529800002B07D0FB681B68DA68FB681B6842F4C0
:1052A8008072DA60FB681B685A69FB681B6842F009
:1052B80001025A61FB681B68DA68FB681B6842F0E8
:1052C8002002DA60002318461437BD465DF8047BD7
:1052D800704780B495B000AF78607B681B680C336A
:1052E8007B637B6B53E8003F3B633B6B23F490731A
:1052F800FB647B681B680C33FA6C3A64FB63F96BDC
:105308003A6C41E80023BB63BB6B002BE5D17B689B
:105318001B6814333B623B6A53E8003FFB61FB693F
:1053280023F00103BB647B681B681433BA6CFA6210
:10533800BB62B96AFA6A41E800237B627B6A002B88
:10534800E5D17B681B6B012B19D17B681B680C337B
:10535800FB60FB6853E8003FBB60BB6823F01003A9
:105368007B647B681B680C337A6CBA617B617969F2
:10537800BA6941E800233B613B69002BE5D17B68B2
:10538800202283F842207B6800221A6300BF54372A
:10539800BD465DF8047B704780B584B000AF786087
:1053A8007B689B6BFB60FB680022DA85FB68002248
:1053B800DA84F868FFF7E4FE00BF1037BD4680BD09
:1053C80080B485B000AF78607B6893F84130DBB279
:1053D800212B3ED17B689B68B3F5805F14D17B6835
:1053E8001B69002B10D17B681B6AFB60FB681B885C
:1053F8001A467B681B68C2F308025A607B681B6AFE
:105408009A1C7B681A6208E07B681B6A591C7A68D8
:1054180011621A787B681B685A607B68DB8C9BB2C8
:10542800013B9BB27A681946D184002B0FD17B6867
:105438001B68DA687B681B6822F08002DA607B6888
:105448001B68DA687B681B6842F04002DA60002358
:1054580000E0022318461437BD465DF8047B704708
:1054680080B582B000AF78607B681B68DA687B68BB
:105478001B6822F04002DA607B68202283F8412012
:105488007868FFF773FE002318460837BD4680BDCD
:1054980080B58CB000AF78607B6893F84230DBB29F
:1054A800222B40F0AE807B689B68B3F5805F17D1F4
:1054B8007B681B69002B13D10023FB627B689B6A06
:1054C800BB627B681B685B689BB2C3F308039AB234
:1054D800BB6A1A807B689B6A9A1C7B689A6226E082
:1054E8007B689B6AFB620023BB627B689B68B3F5A1
:1054F800805F07D07B689B68002B0AD17B681B699B
:10550800002B06D17B681B685B68DAB2FB6A1A70ED
:1055180008E07B681B685B68DBB203F07F03DAB2E4
:10552800FB6A1A707B689B6A5A1C7B689A627B6864
:10553800DB8D9BB2013B9BB27A681946D185002B63
:105548005DD17B681B68DA687B681B6822F02002E3
:10555800DA607B681B68DA687B681B6822F48072F3
:10556800DA607B681B685A697B681B6822F0010255
:105578005A617B68202283F842207B6800225A63A4
:105588007B681B6B012B35D17B6800221A637B6813
:105598001B680C337B617B6953E8003F3B613B69C7
:1055A80023F010037B627B681B680C337A6A3A62CB
:1055B800FB61F9693A6A41E80023BB61BB69002BCA
:1055C800E5D17B681B681B6803F01003102B0AD118
:1055D8000023FB607B681B681B68FB607B681B689B
:1055E8005B68FB60FB687B689B8D19467868FFF7F2
:1055F800D1FD02E07868FAF763FF002302E0002398
:1056080000E0022318463037BD4680BD2DE9B04F73
:10561800C0B000AFC7F8F400D7F8F4301B681B69B6
:1056280023F44050D7F8F430D968D7F8F4301A6822
:1056380040EA01031361D7F8F4309A68D7F8F430D8
:105648001B691A43D7F8F4305B691A43D7F8F4306A
:10565800DB691343C7F8F830D7F8F4301B68DB6808
:1056680023F4164121F00C01D7F8F4301A68D7F862
:10567800F8300B43D360D7F8F4301B685B6923F428
:105688004070D7F8F4309969D7F8F4301A6840EACE
:1056980001035361D7F8F4301A688F4B9A4205D04A
:1056A800D7F8F4301A688D4B9A4204D1FDF7D0FF31
:1056B800C7F8FC0003E0FDF7B7FFC7F8FC00D7F810
:1056C800F430DB69B3F5004F40F00C81D7F8FC30BB
:1056D8000022C7F8E830C7F8EC20D7E93A45224657
:1056E8002B469118B9655B41FB65D7E9162321461E
:1056F80012EB0108294643EB01094FF000024FF075
:1057080000034FEAC90343EA58734FEAC8029046B8
:105718009946234618EB0303C7F8E0302B4649EBBC
:105728000303C7F8E430D7F8F4305B680022C7F801
:10573800D830C7F8DC20D7E936120B46DB183B65B2
:10574800134642EB03037B65D7E91423D7E93801F5
:10575800FAF73EFD02460B46614BA3FB02235B09A9
:105768001C01D7F8FC300022C7F8D030C7F8D42085
:10577800D7E9348942464B469118B9645B41FB64CA
:10578800D7E91223414612EB010A494643EB010BC4
:105798004FF000024FF000034FEACB0343EA5A737D
:1057A8004FEACA0292469B4643461AEB0303C7F8E0
:1057B800C8304B464BEB0303C7F8CC30D7F8F4306E
:1057C8005B680022C7F8C030C7F8C420D7E9301298
:1057D8000B46DB183B64134642EB03037B64D7E9B3
:1057E8001023D7E93201FAF7F3FC02460B461146BB
:1057F8003B4BA3FB01235B09642202FB03F3CB1A97
:10580800DB0003F13202364BA3FB02235B095B008A
:1058180003F4F8731C44D7F8FC300022C7F8B830FA
:10582800C7F8BC20D7E92E8942464B469118B96380
:105838005B41FB63D7E90E2341465118396349465A
:105848004B417B634FF000024FF00003D7E90CABEC
:105858005946CB00514643EA51735146CA00104697
:105868001946034642469B18C7F8B0304B460A46CD
:1058780042EB0303C7F8B430D7F8F4305B68002272
:10588800C7F8A830C7F8AC20D7E92A120B46DB18AE
:10589800BB62134642EB0303FB62D7E90A23D7E94D
:1058A8002C01FAF795FC02460B460D4BA3FB02139D
:1058B8005B09642101FB03F3D31ADB003233084A86
:1058C800A2FB03235B0903F00702D7F8F4301B6837
:1058D80022449A6006E100BF001001400014014014
:1058E8001F85EB51D7F8FC300022C7F8A030C7F865
:1058F800A420D7E9288942464B46911839625B4172
:105908007B62D7E9082341465418494643EB010511
:105918004FF000024FF00003EB0043EA5473E2003B
:1059280014461D464346E318C7F898304B4645EBE6
:105938000303C7F89C30D7F8F4305B680022C7F837
:105948009030C7F894204FF000024FF00003D7E9D9
:10595800244529468B00214643EA917321468A0053
:10596800D7E92601FAF734FC02460B46604BA3FB45
:1059780002235B091C01D7F8FC300022C7F88830E5
:10598800C7F88C20D7E9228942464B469118B9615D
:105998005B41FB61D7E90623414651183961494605
:1059A8004B417B614FF000024FF00003D7E904AB95
:1059B8005946CB00514643EA51735146CA00104636
:1059C8001946034642469B18C7F880304B460A469C
:1059D80042EB0303C7F88430D7F8F4305B68002241
:1059E800BB67FA674FF000024FF00003D7E91E8942
:1059F80049468B00414643EA917341468A00D7E9FC
:105A08002001FAF7E5FB02460B461146384BA3FB8B
:105A180001235B09642202FB03F3CB1A1B01323317
:105A2800334AA2FB03235B0903F0F0031C44D7F8B5
:105A3800FC3000223B677A67D7E91C8942464B460F
:105A48009118B9605B41FB60D7E9022341465118C0
:105A5800396049464B417B604FF000024FF000032C
:105A6800D7E900AB5946CB00514643EA517351463A
:105A7800CA0010461946034642469B18BB664B4669
:105A88000A4642EB0303FB66D7F8F4305B68002252
:105A98003B667A664FF000024FF00003D7E9188999
:105AA80049468B00414643EA917341468A00D7E94B
:105AB8001A01FAF78DFB02460B460D4BA3FB0213A6
:105AC8005B09642101FB03F3D31A1B013233084A33
